{
  "_format": "hh3-artifact-1",
  "contractName": "AuditLogger",
  "sourceName": "contracts/AuditLogger.sol",
  "abi": [
    {
      "anonymous": false,
      "inputs": [
        {
          "indexed": true,
          "internalType": "uint256",
          "name": "logId",
          "type": "uint256"
        },
        {
          "indexed": true,
          "internalType": "address",
          "name": "actor",
          "type": "address"
        },
        {
          "indexed": false,
          "internalType": "string",
          "name": "action",
          "type": "string"
        }
      ],
      "name": "LogCreated",
      "type": "event"
    },
    {
      "inputs": [
        {
          "internalType": "string",
          "name": "_action",
          "type": "string"
        },
        {
          "internalType": "string",
          "name": "_targetType",
          "type": "string"
        },
        {
          "internalType": "string",
          "name": "_targetId",
          "type": "string"
        },
        {
          "internalType": "string",
          "name": "_detailsCid",
          "type": "string"
        }
      ],
      "name": "createLog",
      "outputs": [],
      "stateMutability": "nonpayable",
      "type": "function"
    },
    {
      "inputs": [],
      "name": "getLogsCount",
      "outputs": [
        {
          "internalType": "uint256",
          "name": "",
          "type": "uint256"
        }
      ],
      "stateMutability": "view",
      "type": "function"
    },
    {
      "inputs": [
        {
          "internalType": "uint256",
          "name": "",
          "type": "uint256"
        }
      ],
      "name": "logs",
      "outputs": [
        {
          "internalType": "address",
          "name": "actor",
          "type": "address"
        },
        {
          "internalType": "string",
          "name": "action",
          "type": "string"
        },
        {
          "internalType": "string",
          "name": "targetType",
          "type": "string"
        },
        {
          "internalType": "string",
          "name": "targetId",
          "type": "string"
        },
        {
          "internalType": "string",
          "name": "detailsCid",
          "type": "string"
        },
        {
          "internalType": "uint256",
          "name": "timestamp",
          "type": "uint256"
        }
      ],
      "stateMutability": "view",
      "type": "function"
    }
  ],
  "bytecode": "0x608060405234801561000f575f80fd5b50610c0b8061001d5f395ff3fe608060405234801561000f575f80fd5b506004361061003f575f3560e01c806389f0453514610043578063cc9e300f1461005f578063e79899bd1461007d575b5f80fd5b61005d600480360381019061005891906105fe565b6100b2565b005b610067610229565b60405161007491906106ea565b60405180910390f35b6100976004803603810190610092919061072d565b610234565b6040516100a996959493929190610811565b60405180910390f35b5f6040518060c001604052803373ffffffffffffffffffffffffffffffffffffffff16815260200186815260200185815260200184815260200183815260200142815250908060018154018082558091505060019003905f5260205f2090600602015f909190919091505f820151815f015f6101000a81548173ffffffffffffffffffffffffffffffffffffffff021916908373ffffffffffffffffffffffffffffffffffffffff16021790555060208201518160010190816101759190610a86565b50604082015181600201908161018b9190610a86565b5060608201518160030190816101a19190610a86565b5060808201518160040190816101b79190610a86565b5060a0820151816005015550503373ffffffffffffffffffffffffffffffffffffffff1660015f805490506101ec9190610b82565b7f9de585e7d7012995416923861eb841a14b577f7d6bd5c21fbb9e233ddc41fb048660405161021b9190610bb5565b60405180910390a350505050565b5f8080549050905090565b5f8181548110610242575f80fd5b905f5260205f2090600602015f91509050805f015f9054906101000a900473ffffffffffffffffffffffffffffffffffffffff1690806001018054610286906108b9565b80601f01602080910402602001604051908101604052809291908181526020018280546102b2906108b9565b80156102fd5780601f106102d4576101008083540402835291602001916102fd565b820191905f5260205f20905b8154815290600101906020018083116102e057829003601f168201915b505050505090806002018054610312906108b9565b80601f016020809104026020016040519081016040528092919081815260200182805461033e906108b9565b80156103895780601f1061036057610100808354040283529160200191610389565b820191905f5260205f20905b81548152906001019060200180831161036c57829003601f168201915b50505050509080600301805461039e906108b9565b80601f01602080910402602001604051908101604052809291908181526020018280546103ca906108b9565b80156104155780601f106103ec57610100808354040283529160200191610415565b820191905f5260205f20905b8154815290600101906020018083116103f857829003601f168201915b50505050509080600401805461042a906108b9565b80601f0160208091040260200160405190810160405280929190818152602001828054610456906108b9565b80156104a15780601f10610478576101008083540402835291602001916104a1565b820191905f5260205f20905b81548152906001019060200180831161048457829003601f168201915b5050505050908060050154905086565b5f604051905090565b5f80fd5b5f80fd5b5f80fd5b5f80fd5b5f601f19601f8301169050919050565b7f4e487b71000000000000000000000000000000000000000000000000000000005f52604160045260245ffd5b610510826104ca565b810181811067ffffffffffffffff8211171561052f5761052e6104da565b5b80604052505050565b5f6105416104b1565b905061054d8282610507565b919050565b5f67ffffffffffffffff82111561056c5761056b6104da565b5b610575826104ca565b9050602081019050919050565b828183375f83830152505050565b5f6105a261059d84610552565b610538565b9050828152602081018484840111156105be576105bd6104c6565b5b6105c9848285610582565b509392505050565b5f82601f8301126105e5576105e46104c2565b5b81356105f5848260208601610590565b91505092915050565b5f805f8060808587031215610616576106156104ba565b5b5f85013567ffffffffffffffff811115610633576106326104be565b5b61063f878288016105d1565b945050602085013567ffffffffffffffff8111156106605761065f6104be565b5b61066c878288016105d1565b935050604085013567ffffffffffffffff81111561068d5761068c6104be565b5b610699878288016105d1565b925050606085013567ffffffffffffffff8111156106ba576106b96104be565b5b6106c6878288016105d1565b91505092959194509250565b5f819050919050565b6106e4816106d2565b82525050565b5f6020820190506106fd5f8301846106db565b92915050565b61070c816106d2565b8114610716575f80fd5b50565b5f8135905061072781610703565b92915050565b5f60208284031215610742576107416104ba565b5b5f61074f84828501610719565b91505092915050565b5f73ffffffffffffffffffffffffffffffffffffffff82169050919050565b5f61078182610758565b9050919050565b61079181610777565b82525050565b5f81519050919050565b5f82825260208201905092915050565b5f5b838110156107ce5780820151818401526020810190506107b3565b5f8484015250505050565b5f6107e382610797565b6107ed81856107a1565b93506107fd8185602086016107b1565b610806816104ca565b840191505092915050565b5f60c0820190506108245f830189610788565b818103602083015261083681886107d9565b9050818103604083015261084a81876107d9565b9050818103606083015261085e81866107d9565b9050818103608083015261087281856107d9565b905061088160a08301846106db565b979650505050505050565b7f4e487b71000000000000000000000000000000000000000000000000000000005f52602260045260245ffd5b5f60028204905060018216806108d057607f821691505b6020821081036108e3576108e261088c565b5b50919050565b5f819050815f5260205f209050919050565b5f6020601f8301049050919050565b5f82821b905092915050565b5f600883026109457fffffffffffffffffffffffffffffffffffffffffffffffffffffffffffffffff8261090a565b61094f868361090a565b95508019841693508086168417925050509392505050565b5f819050919050565b5f61098a610985610980846106d2565b610967565b6106d2565b9050919050565b5f819050919050565b6109a383610970565b6109b76109af82610991565b848454610916565b825550505050565b5f90565b6109cb6109bf565b6109d681848461099a565b505050565b5b818110156109f9576109ee5f826109c3565b6001810190506109dc565b5050565b601f821115610a3e57610a0f816108e9565b610a18846108fb565b81016020851015610a27578190505b610a3b610a33856108fb565b8301826109db565b50505b505050565b5f82821c905092915050565b5f610a5e5f1984600802610a43565b1980831691505092915050565b5f610a768383610a4f565b9150826002028217905092915050565b610a8f82610797565b67ffffffffffffffff811115610aa857610aa76104da565b5b610ab282546108b9565b610abd8282856109fd565b5f60209050601f831160018114610aee575f8415610adc578287015190505b610ae68582610a6b565b865550610b4d565b601f198416610afc866108e9565b5f5b82811015610b2357848901518255600182019150602085019450602081019050610afe565b86831015610b405784890151610b3c601f891682610a4f565b8355505b6001600288020188555050505b505050505050565b7f4e487b71000000000000000000000000000000000000000000000000000000005f52601160045260245ffd5b5f610b8c826106d2565b9150610b97836106d2565b9250828203905081811115610baf57610bae610b55565b5b92915050565b5f6020820190508181035f830152610bcd81846107d9565b90509291505056fea264697066735822122020dc5d946212ce5e78e2b4170352ace294ec50f606a6f2632c63b18b737a25c264736f6c63430008180033",
  "linkReferences": {},
  "deployedLinkReferences": {},
  "immutableReferences": {},
  "inputSourceName": "project/contracts/AuditLogger.sol",
  "buildInfoId": "solc-0_8_24-6cac21bb9ccea4ef1fc9323734124096d3da5fab"
}