{
  "_format": "hh3-artifact-1",
  "contractName": "GradeRegistry",
  "sourceName": "contracts/GradeRegistry.sol",
  "abi": [
    {
      "anonymous": false,
      "inputs": [
        {
          "indexed": true,
          "internalType": "string",
          "name": "studentId",
          "type": "string"
        },
        {
          "indexed": false,
          "internalType": "string",
          "name": "courseId",
          "type": "string"
        },
        {
          "indexed": false,
          "internalType": "string",
          "name": "cid",
          "type": "string"
        },
        {
          "indexed": true,
          "internalType": "address",
          "name": "faculty",
          "type": "address"
        }
      ],
      "name": "GradeLogged",
      "type": "event"
    },
    {
      "inputs": [
        {
          "internalType": "string",
          "name": "",
          "type": "string"
        }
      ],
      "name": "grades",
      "outputs": [
        {
          "internalType": "string",
          "name": "studentId",
          "type": "string"
        },
        {
          "internalType": "string",
          "name": "courseId",
          "type": "string"
        },
        {
          "internalType": "string",
          "name": "term",
          "type": "string"
        },
        {
          "internalType": "string",
          "name": "cid",
          "type": "string"
        },
        {
          "internalType": "address",
          "name": "faculty",
          "type": "address"
        },
        {
          "internalType": "uint256",
          "name": "timestamp",
          "type": "uint256"
        }
      ],
      "stateMutability": "view",
      "type": "function"
    },
    {
      "inputs": [
        {
          "internalType": "string",
          "name": "_studentId",
          "type": "string"
        },
        {
          "internalType": "string",
          "name": "_courseId",
          "type": "string"
        },
        {
          "internalType": "string",
          "name": "_term",
          "type": "string"
        },
        {
          "internalType": "string",
          "name": "_cid",
          "type": "string"
        }
      ],
      "name": "logGrade",
      "outputs": [],
      "stateMutability": "nonpayable",
      "type": "function"
    }
  ],
  "bytecode": "0x608060405234801561000f575f80fd5b50610bbc8061001d5f395ff3fe608060405234801561000f575f80fd5b5060043610610034575f3560e01c80632b1aade114610038578063fdc2cfaa14610054575b5f80fd5b610052600480360381019061004d91906105d1565b610089565b005b61006e600480360381019061006991906106a5565b6101fe565b604051610080969594939291906107bd565b60405180910390f35b6040518060c001604052808581526020018481526020018381526020018281526020013373ffffffffffffffffffffffffffffffffffffffff168152602001428152505f826040516100db9190610872565b90815260200160405180910390205f820151815f0190816100fc9190610a82565b5060208201518160010190816101129190610a82565b5060408201518160020190816101289190610a82565b50606082015181600301908161013e9190610a82565b506080820151816004015f6101000a81548173ffffffffffffffffffffffffffffffffffffffff021916908373ffffffffffffffffffffffffffffffffffffffff16021790555060a082015181600501559050503373ffffffffffffffffffffffffffffffffffffffff16846040516101b79190610872565b60405180910390207fbfffec07dd2578bfab0ab75b2c04492caf5c091da71a51c36f5911968a8a78c985846040516101f0929190610b51565b60405180910390a350505050565b5f818051602081018201805184825260208301602085012081835280955050505050505f91509050805f018054610234906108b5565b80601f0160208091040260200160405190810160405280929190818152602001828054610260906108b5565b80156102ab5780601f10610282576101008083540402835291602001916102ab565b820191905f5260205f20905b81548152906001019060200180831161028e57829003601f168201915b5050505050908060010180546102c0906108b5565b80601f01602080910402602001604051908101604052809291908181526020018280546102ec906108b5565b80156103375780601f1061030e57610100808354040283529160200191610337565b820191905f5260205f20905b81548152906001019060200180831161031a57829003601f168201915b50505050509080600201805461034c906108b5565b80601f0160208091040260200160405190810160405280929190818152602001828054610378906108b5565b80156103c35780601f1061039a576101008083540402835291602001916103c3565b820191905f5260205f20905b8154815290600101906020018083116103a657829003601f168201915b5050505050908060030180546103d8906108b5565b80601f0160208091040260200160405190810160405280929190818152602001828054610404906108b5565b801561044f5780601f106104265761010080835404028352916020019161044f565b820191905f5260205f20905b81548152906001019060200180831161043257829003601f168201915b505050505090806004015f9054906101000a900473ffffffffffffffffffffffffffffffffffffffff16908060050154905086565b5f604051905090565b5f80fd5b5f80fd5b5f80fd5b5f80fd5b5f601f19601f8301169050919050565b7f4e487b71000000000000000000000000000000000000000000000000000000005f52604160045260245ffd5b6104e38261049d565b810181811067ffffffffffffffff82111715610502576105016104ad565b5b80604052505050565b5f610514610484565b905061052082826104da565b919050565b5f67ffffffffffffffff82111561053f5761053e6104ad565b5b6105488261049d565b9050602081019050919050565b828183375f83830152505050565b5f61057561057084610525565b61050b565b90508281526020810184848401111561059157610590610499565b5b61059c848285610555565b509392505050565b5f82601f8301126105b8576105b7610495565b5b81356105c8848260208601610563565b91505092915050565b5f805f80608085870312156105e9576105e861048d565b5b5f85013567ffffffffffffffff81111561060657610605610491565b5b610612878288016105a4565b945050602085013567ffffffffffffffff81111561063357610632610491565b5b61063f878288016105a4565b935050604085013567ffffffffffffffff8111156106605761065f610491565b5b61066c878288016105a4565b925050606085013567ffffffffffffffff81111561068d5761068c610491565b5b610699878288016105a4565b91505092959194509250565b5f602082840312156106ba576106b961048d565b5b5f82013567ffffffffffffffff8111156106d7576106d6610491565b5b6106e3848285016105a4565b91505092915050565b5f81519050919050565b5f82825260208201905092915050565b5f5b83811015610723578082015181840152602081019050610708565b5f8484015250505050565b5f610738826106ec565b61074281856106f6565b9350610752818560208601610706565b61075b8161049d565b840191505092915050565b5f73ffffffffffffffffffffffffffffffffffffffff82169050919050565b5f61078f82610766565b9050919050565b61079f81610785565b82525050565b5f819050919050565b6107b7816107a5565b82525050565b5f60c0820190508181035f8301526107d5818961072e565b905081810360208301526107e9818861072e565b905081810360408301526107fd818761072e565b90508181036060830152610811818661072e565b90506108206080830185610796565b61082d60a08301846107ae565b979650505050505050565b5f81905092915050565b5f61084c826106ec565b6108568185610838565b9350610866818560208601610706565b80840191505092915050565b5f61087d8284610842565b915081905092915050565b7f4e487b71000000000000000000000000000000000000000000000000000000005f52602260045260245ffd5b5f60028204905060018216806108cc57607f821691505b6020821081036108df576108de610888565b5b50919050565b5f819050815f5260205f209050919050565b5f6020601f8301049050919050565b5f82821b905092915050565b5f600883026109417fffffffffffffffffffffffffffffffffffffffffffffffffffffffffffffffff82610906565b61094b8683610906565b95508019841693508086168417925050509392505050565b5f819050919050565b5f61098661098161097c846107a5565b610963565b6107a5565b9050919050565b5f819050919050565b61099f8361096c565b6109b36109ab8261098d565b848454610912565b825550505050565b5f90565b6109c76109bb565b6109d2818484610996565b505050565b5b818110156109f5576109ea5f826109bf565b6001810190506109d8565b5050565b601f821115610a3a57610a0b816108e5565b610a14846108f7565b81016020851015610a23578190505b610a37610a2f856108f7565b8301826109d7565b50505b505050565b5f82821c905092915050565b5f610a5a5f1984600802610a3f565b1980831691505092915050565b5f610a728383610a4b565b9150826002028217905092915050565b610a8b826106ec565b67ffffffffffffffff811115610aa457610aa36104ad565b5b610aae82546108b5565b610ab98282856109f9565b5f60209050601f831160018114610aea575f8415610ad8578287015190505b610ae28582610a67565b865550610b49565b601f198416610af8866108e5565b5f5b82811015610b1f57848901518255600182019150602085019450602081019050610afa565b86831015610b3c5784890151610b38601f891682610a4b565b8355505b6001600288020188555050505b505050505050565b5f6040820190508181035f830152610b69818561072e565b90508181036020830152610b7d818461072e565b9050939250505056fea26469706673582212200a77055cbfad0a969fa504ec81b964e6615626c0db17a1068a678ebab5779c6164736f6c63430008180033",
  "linkReferences": {},
  "deployedLinkReferences": {},
  "immutableReferences": {},
  "inputSourceName": "project/contracts/GradeRegistry.sol",
  "buildInfoId": "solc-0_8_24-b2ed4355f6cc93b6e12407c89e0d1e668cf8e551"
}