{"project/contracts/TranscriptManager.sol":{"TranscriptManager":{"abi":[{"anonymous":false,"inputs":[{"indexed":true,"internalType":"string","name":"studentId","type":"string"},{"indexed":false,"internalType":"string","name":"term","type":"string"},{"indexed":false,"internalType":"string","name":"cid","type":"string"},{"indexed":true,"internalType":"address","name":"issuer","type":"address"}],"name":"TranscriptLogged","type":"event"},{"inputs":[{"internalType":"string","name":"_studentId","type":"string"},{"internalType":"string","name":"_term","type":"string"},{"internalType":"string","name":"_cid","type":"string"}],"name":"logTranscript","outputs":[],"stateMutability":"nonpayable","type":"function"},{"inputs":[{"internalType":"string","name":"","type":"string"}],"name":"transcripts","outputs":[{"internalType":"string","name":"studentId","type":"string"},{"internalType":"string","name":"term","type":"string"},{"internalType":"string","name":"cid","type":"string"},{"internalType":"address","name":"issuer","type":"address"},{"internalType":"uint256","name":"timestamp","type":"uint256"}],"stateMutability":"view","type":"function"}],"evm":{"bytecode":{"linkReferences":{},"object":"608060405234801561000f575f80fd5b50610acd8061001d5f395ff3fe608060405234801561000f575f80fd5b5060043610610034575f3560e01c80635ae4832d14610038578063609411aa1461006c575b5f80fd5b610052600480360381019061004d9190610527565b610088565b60405161006395949392919061063f565b60405180910390f35b610086600480360381019061008191906106a5565b610282565b005b5f818051602081018201805184825260208301602085012081835280955050505050505f91509050805f0180546100be90610776565b80601f01602080910402602001604051908101604052809291908181526020018280546100ea90610776565b80156101355780601f1061010c57610100808354040283529160200191610135565b820191905f5260205f20905b81548152906001019060200180831161011857829003601f168201915b50505050509080600101805461014a90610776565b80601f016020809104026020016040519081016040528092919081815260200182805461017690610776565b80156101c15780601f10610198576101008083540402835291602001916101c1565b820191905f5260205f20905b8154815290600101906020018083116101a457829003601f168201915b5050505050908060020180546101d690610776565b80601f016020809104026020016040519081016040528092919081815260200182805461020290610776565b801561024d5780601f106102245761010080835404028352916020019161024d565b820191905f5260205f20905b81548152906001019060200180831161023057829003601f168201915b505050505090806003015f9054906101000a900473ffffffffffffffffffffffffffffffffffffffff16908060040154905085565b6040518060a001604052808481526020018381526020018281526020013373ffffffffffffffffffffffffffffffffffffffff168152602001428152505f826040516102ce91906107e0565b90815260200160405180910390205f820151815f0190816102ef9190610993565b5060208201518160010190816103059190610993565b50604082015181600201908161031b9190610993565b506060820151816003015f6101000a81548173ffffffffffffffffffffffffffffffffffffffff021916908373ffffffffffffffffffffffffffffffffffffffff160217905550608082015181600401559050503373ffffffffffffffffffffffffffffffffffffffff168360405161039491906107e0565b60405180910390207fafd6d78379b1b896dc1fc550699ed2c95b42396e9d91760766e8b27b85843f1c84846040516103cd929190610a62565b60405180910390a3505050565b5f604051905090565b5f80fd5b5f80fd5b5f80fd5b5f80fd5b5f601f19601f8301169050919050565b7f4e487b71000000000000000000000000000000000000000000000000000000005f52604160045260245ffd5b610439826103f3565b810181811067ffffffffffffffff8211171561045857610457610403565b5b80604052505050565b5f61046a6103da565b90506104768282610430565b919050565b5f67ffffffffffffffff82111561049557610494610403565b5b61049e826103f3565b9050602081019050919050565b828183375f83830152505050565b5f6104cb6104c68461047b565b610461565b9050828152602081018484840111156104e7576104e66103ef565b5b6104f28482856104ab565b509392505050565b5f82601f83011261050e5761050d6103eb565b5b813561051e8482602086016104b9565b91505092915050565b5f6020828403121561053c5761053b6103e3565b5b5f82013567ffffffffffffffff811115610559576105586103e7565b5b610565848285016104fa565b91505092915050565b5f81519050919050565b5f82825260208201905092915050565b5f5b838110156105a557808201518184015260208101905061058a565b5f8484015250505050565b5f6105ba8261056e565b6105c48185610578565b93506105d4818560208601610588565b6105dd816103f3565b840191505092915050565b5f73ffffffffffffffffffffffffffffffffffffffff82169050919050565b5f610611826105e8565b9050919050565b61062181610607565b82525050565b5f819050919050565b61063981610627565b82525050565b5f60a0820190508181035f83015261065781886105b0565b9050818103602083015261066b81876105b0565b9050818103604083015261067f81866105b0565b905061068e6060830185610618565b61069b6080830184610630565b9695505050505050565b5f805f606084860312156106bc576106bb6103e3565b5b5f84013567ffffffffffffffff8111156106d9576106d86103e7565b5b6106e5868287016104fa565b935050602084013567ffffffffffffffff811115610706576107056103e7565b5b610712868287016104fa565b925050604084013567ffffffffffffffff811115610733576107326103e7565b5b61073f868287016104fa565b9150509250925092565b7f4e487b71000000000000000000000000000000000000000000000000000000005f52602260045260245ffd5b5f600282049050600182168061078d57607f821691505b6020821081036107a05761079f610749565b5b50919050565b5f81905092915050565b5f6107ba8261056e565b6107c481856107a6565b93506107d4818560208601610588565b80840191505092915050565b5f6107eb82846107b0565b915081905092915050565b5f819050815f5260205f209050919050565b5f6020601f8301049050919050565b5f82821b905092915050565b5f600883026108527fffffffffffffffffffffffffffffffffffffffffffffffffffffffffffffffff82610817565b61085c8683610817565b95508019841693508086168417925050509392505050565b5f819050919050565b5f61089761089261088d84610627565b610874565b610627565b9050919050565b5f819050919050565b6108b08361087d565b6108c46108bc8261089e565b848454610823565b825550505050565b5f90565b6108d86108cc565b6108e38184846108a7565b505050565b5b81811015610906576108fb5f826108d0565b6001810190506108e9565b5050565b601f82111561094b5761091c816107f6565b61092584610808565b81016020851015610934578190505b61094861094085610808565b8301826108e8565b50505b505050565b5f82821c905092915050565b5f61096b5f1984600802610950565b1980831691505092915050565b5f610983838361095c565b9150826002028217905092915050565b61099c8261056e565b67ffffffffffffffff8111156109b5576109b4610403565b5b6109bf8254610776565b6109ca82828561090a565b5f60209050601f8311600181146109fb575f84156109e9578287015190505b6109f38582610978565b865550610a5a565b601f198416610a09866107f6565b5f5b82811015610a3057848901518255600182019150602085019450602081019050610a0b565b86831015610a4d5784890151610a49601f89168261095c565b8355505b6001600288020188555050505b505050505050565b5f6040820190508181035f830152610a7a81856105b0565b90508181036020830152610a8e81846105b0565b9050939250505056fea2646970667358221220d0fc9f13a1aa2122dca7339b2bf60a977523370f97a868d928e6ff1fd8313d8664736f6c63430008180033","opcodes":"PUSH1 0x80 PUSH1 0x40 MSTORE CALLVALUE DUP1 ISZERO PUSH2 0xF JUMPI PUSH0 DUP1 REVERT JUMPDEST POP PUSH2 0xACD DUP1 PUSH2 0x1D PUSH0 CODECOPY PUSH0 RETURN INVALID PUSH1 0x80 PUSH1 0x40 MSTORE CALLVALUE DUP1 ISZERO PUSH2 0xF JUMPI PUSH0 DUP1 REVERT JUMPDEST POP PUSH1 0x4 CALLDATASIZE LT PUSH2 0x34 JUMPI PUSH0 CALLDATALOAD PUSH1 0xE0 SHR DUP1 PUSH4 0x5AE4832D EQ PUSH2 0x38 JUMPI DUP1 PUSH4 0x609411AA EQ PUSH2 0x6C JUMPI JUMPDEST PUSH0 DUP1 REVERT JUMPDEST PUSH2 0x52 PUSH1 0x4 DUP1 CALLDATASIZE SUB DUP2 ADD SWAP1 PUSH2 0x4D SWAP2 SWAP1 PUSH2 0x527 JUMP JUMPDEST PUSH2 0x88 JUMP JUMPDEST PUSH1 0x40 MLOAD PUSH2 0x63 SWAP6 SWAP5 SWAP4 SWAP3 SWAP2 SWAP1 PUSH2 0x63F JUMP JUMPDEST PUSH1 0x40 MLOAD DUP1 SWAP2 SUB SWAP1 RETURN JUMPDEST PUSH2 0x86 PUSH1 0x4 DUP1 CALLDATASIZE SUB DUP2 ADD SWAP1 PUSH2 0x81 SWAP2 SWAP1 PUSH2 0x6A5 JUMP JUMPDEST PUSH2 0x282 JUMP JUMPDEST STOP JUMPDEST PUSH0 DUP2 DUP1 MLOAD PUSH1 0x20 DUP2 ADD DUP3 ADD DUP1 MLOAD DUP5 DUP3 MSTORE PUSH1 0x20 DUP4 ADD PUSH1 0x20 DUP6 ADD KECCAK256 DUP2 DUP4 MSTORE DUP1 SWAP6 POP POP POP POP POP POP PUSH0 SWAP2 POP SWAP1 POP DUP1 PUSH0 ADD DUP1 SLOAD PUSH2 0xBE SWAP1 PUSH2 0x776 JUMP JUMPDEST DUP1 PUSH1 0x1F ADD PUSH1 0x20 DUP1 SWAP2 DIV MUL PUSH1 0x20 ADD PUSH1 0x40 MLOAD SWAP1 DUP2 ADD PUSH1 0x40 MSTORE DUP1 SWAP3 SWAP2 SWAP1 DUP2 DUP2 MSTORE PUSH1 0x20 ADD DUP3 DUP1 SLOAD PUSH2 0xEA SWAP1 PUSH2 0x776 JUMP JUMPDEST DUP1 ISZERO PUSH2 0x135 JUMPI DUP1 PUSH1 0x1F LT PUSH2 0x10C JUMPI PUSH2 0x100 DUP1 DUP4 SLOAD DIV MUL DUP4 MSTORE SWAP2 PUSH1 0x20 ADD SWAP2 PUSH2 0x135 JUMP JUMPDEST DUP3 ADD SWAP2 SWAP1 PUSH0 MSTORE PUSH1 0x20 PUSH0 KECCAK256 SWAP1 JUMPDEST DUP2 SLOAD DUP2 MSTORE SWAP1 PUSH1 0x1 ADD SWAP1 PUSH1 0x20 ADD DUP1 DUP4 GT PUSH2 0x118 JUMPI DUP3 SWAP1 SUB PUSH1 0x1F AND DUP3 ADD SWAP2 JUMPDEST POP POP POP POP POP SWAP1 DUP1 PUSH1 0x1 ADD DUP1 SLOAD PUSH2 0x14A SWAP1 PUSH2 0x776 JUMP JUMPDEST DUP1 PUSH1 0x1F ADD PUSH1 0x20 DUP1 SWAP2 DIV MUL PUSH1 0x20 ADD PUSH1 0x40 MLOAD SWAP1 DUP2 ADD PUSH1 0x40 MSTORE DUP1 SWAP3 SWAP2 SWAP1 DUP2 DUP2 MSTORE PUSH1 0x20 ADD DUP3 DUP1 SLOAD PUSH2 0x176 SWAP1 PUSH2 0x776 JUMP JUMPDEST DUP1 ISZERO PUSH2 0x1C1 JUMPI DUP1 PUSH1 0x1F LT PUSH2 0x198 JUMPI PUSH2 0x100 DUP1 DUP4 SLOAD DIV MUL DUP4 MSTORE SWAP2 PUSH1 0x20 ADD SWAP2 PUSH2 0x1C1 JUMP JUMPDEST DUP3 ADD SWAP2 SWAP1 PUSH0 MSTORE PUSH1 0x20 PUSH0 KECCAK256 SWAP1 JUMPDEST DUP2 SLOAD DUP2 MSTORE SWAP1 PUSH1 0x1 ADD SWAP1 PUSH1 0x20 ADD DUP1 DUP4 GT PUSH2 0x1A4 JUMPI DUP3 SWAP1 SUB PUSH1 0x1F AND DUP3 ADD SWAP2 JUMPDEST POP POP POP POP POP SWAP1 DUP1 PUSH1 0x2 ADD DUP1 SLOAD PUSH2 0x1D6 SWAP1 PUSH2 0x776 JUMP JUMPDEST DUP1 PUSH1 0x1F ADD PUSH1 0x20 DUP1 SWAP2 DIV MUL PUSH1 0x20 ADD PUSH1 0x40 MLOAD SWAP1 DUP2 ADD PUSH1 0x40 MSTORE DUP1 SWAP3 SWAP2 SWAP1 DUP2 DUP2 MSTORE PUSH1 0x20 ADD DUP3 DUP1 SLOAD PUSH2 0x202 SWAP1 PUSH2 0x776 JUMP JUMPDEST DUP1 ISZERO PUSH2 0x24D JUMPI DUP1 PUSH1 0x1F LT PUSH2 0x224 JUMPI PUSH2 0x100 DUP1 DUP4 SLOAD DIV MUL DUP4 MSTORE SWAP2 PUSH1 0x20 ADD SWAP2 PUSH2 0x24D JUMP JUMPDEST DUP3 ADD SWAP2 SWAP1 PUSH0 MSTORE PUSH1 0x20 PUSH0 KECCAK256 SWAP1 JUMPDEST DUP2 SLOAD DUP2 MSTORE SWAP1 PUSH1 0x1 ADD SWAP1 PUSH1 0x20 ADD DUP1 DUP4 GT PUSH2 0x230 JUMPI DUP3 SWAP1 SUB PUSH1 0x1F AND DUP3 ADD SWAP2 JUMPDEST POP POP POP POP POP SWAP1 DUP1 PUSH1 0x3 ADD PUSH0 SWAP1 SLOAD SWAP1 PUSH2 0x100 EXP SWAP1 DIV PUSH20 0xFFFFFFFFFFFFFFFFFFFFFFFFFFFFFFFFFFFFFFFF AND SWAP1 DUP1 PUSH1 0x4 ADD SLOAD SWAP1 POP DUP6 JUMP JUMPDEST PUSH1 0x40 MLOAD DUP1 PUSH1 0xA0 ADD PUSH1 0x40 MSTORE DUP1 DUP5 DUP2 MSTORE PUSH1 0x20 ADD DUP4 DUP2 MSTORE PUSH1 0x20 ADD DUP3 DUP2 MSTORE PUSH1 0x20 ADD CALLER PUSH20 0xFFFFFFFFFFFFFFFFFFFFFFFFFFFFFFFFFFFFFFFF AND DUP2 MSTORE PUSH1 0x20 ADD TIMESTAMP DUP2 MSTORE POP PUSH0 DUP3 PUSH1 0x40 MLOAD PUSH2 0x2CE SWAP2 SWAP1 PUSH2 0x7E0 JUMP JUMPDEST SWAP1 DUP2 MSTORE PUSH1 0x20 ADD PUSH1 0x40 MLOAD DUP1 SWAP2 SUB SWAP1 KECCAK256 PUSH0 DUP3 ADD MLOAD DUP2 PUSH0 ADD SWAP1 DUP2 PUSH2 0x2EF SWAP2 SWAP1 PUSH2 0x993 JUMP JUMPDEST POP PUSH1 0x20 DUP3 ADD MLOAD DUP2 PUSH1 0x1 ADD SWAP1 DUP2 PUSH2 0x305 SWAP2 SWAP1 PUSH2 0x993 JUMP JUMPDEST POP PUSH1 0x40 DUP3 ADD MLOAD DUP2 PUSH1 0x2 ADD SWAP1 DUP2 PUSH2 0x31B SWAP2 SWAP1 PUSH2 0x993 JUMP JUMPDEST POP PUSH1 0x60 DUP3 ADD MLOAD DUP2 PUSH1 0x3 ADD PUSH0 PUSH2 0x100 EXP DUP2 SLOAD DUP2 PUSH20 0xFFFFFFFFFFFFFFFFFFFFFFFFFFFFFFFFFFFFFFFF MUL NOT AND SWAP1 DUP4 PUSH20 0xFFFFFFFFFFFFFFFFFFFFFFFFFFFFFFFFFFFFFFFF AND MUL OR SWAP1 SSTORE POP PUSH1 0x80 DUP3 ADD MLOAD DUP2 PUSH1 0x4 ADD SSTORE SWAP1 POP POP CALLER PUSH20 0xFFFFFFFFFFFFFFFFFFFFFFFFFFFFFFFFFFFFFFFF AND DUP4 PUSH1 0x40 MLOAD PUSH2 0x394 SWAP2 SWAP1 PUSH2 0x7E0 JUMP JUMPDEST PUSH1 0x40 MLOAD DUP1 SWAP2 SUB SWAP1 KECCAK256 PUSH32 0xAFD6D78379B1B896DC1FC550699ED2C95B42396E9D91760766E8B27B85843F1C DUP5 DUP5 PUSH1 0x40 MLOAD PUSH2 0x3CD SWAP3 SWAP2 SWAP1 PUSH2 0xA62 JUMP JUMPDEST PUSH1 0x40 MLOAD DUP1 SWAP2 SUB SWAP1 LOG3 POP POP POP JUMP JUMPDEST PUSH0 PUSH1 0x40 MLOAD SWAP1 POP SWAP1 JUMP JUMPDEST PUSH0 DUP1 REVERT JUMPDEST PUSH0 DUP1 REVERT JUMPDEST PUSH0 DUP1 REVERT JUMPDEST PUSH0 DUP1 REVERT JUMPDEST PUSH0 PUSH1 0x1F NOT PUSH1 0x1F DUP4 ADD AND SWAP1 POP SWAP2 SWAP1 POP JUMP JUMPDEST PUSH32 0x4E487B7100000000000000000000000000000000000000000000000000000000 PUSH0 MSTORE PUSH1 0x41 PUSH1 0x4 MSTORE PUSH1 0x24 PUSH0 REVERT JUMPDEST PUSH2 0x439 DUP3 PUSH2 0x3F3 JUMP JUMPDEST DUP2 ADD DUP2 DUP2 LT PUSH8 0xFFFFFFFFFFFFFFFF DUP3 GT OR ISZERO PUSH2 0x458 JUMPI PUSH2 0x457 PUSH2 0x403 JUMP JUMPDEST JUMPDEST DUP1 PUSH1 0x40 MSTORE POP POP POP JUMP JUMPDEST PUSH0 PUSH2 0x46A PUSH2 0x3DA JUMP JUMPDEST SWAP1 POP PUSH2 0x476 DUP3 DUP3 PUSH2 0x430 JUMP JUMPDEST SWAP2 SWAP1 POP JUMP JUMPDEST PUSH0 PUSH8 0xFFFFFFFFFFFFFFFF DUP3 GT ISZERO PUSH2 0x495 JUMPI PUSH2 0x494 PUSH2 0x403 JUMP JUMPDEST JUMPDEST PUSH2 0x49E DUP3 PUSH2 0x3F3 JUMP JUMPDEST SWAP1 POP PUSH1 0x20 DUP2 ADD SWAP1 POP SWAP2 SWAP1 POP JUMP JUMPDEST DUP3 DUP2 DUP4 CALLDATACOPY PUSH0 DUP4 DUP4 ADD MSTORE POP POP POP JUMP JUMPDEST PUSH0 PUSH2 0x4CB PUSH2 0x4C6 DUP5 PUSH2 0x47B JUMP JUMPDEST PUSH2 0x461 JUMP JUMPDEST SWAP1 POP DUP3 DUP2 MSTORE PUSH1 0x20 DUP2 ADD DUP5 DUP5 DUP5 ADD GT ISZERO PUSH2 0x4E7 JUMPI PUSH2 0x4E6 PUSH2 0x3EF JUMP JUMPDEST JUMPDEST PUSH2 0x4F2 DUP5 DUP3 DUP6 PUSH2 0x4AB JUMP JUMPDEST POP SWAP4 SWAP3 POP POP POP JUMP JUMPDEST PUSH0 DUP3 PUSH1 0x1F DUP4 ADD SLT PUSH2 0x50E JUMPI PUSH2 0x50D PUSH2 0x3EB JUMP JUMPDEST JUMPDEST DUP2 CALLDATALOAD PUSH2 0x51E DUP5 DUP3 PUSH1 0x20 DUP7 ADD PUSH2 0x4B9 JUMP JUMPDEST SWAP2 POP POP SWAP3 SWAP2 POP POP JUMP JUMPDEST PUSH0 PUSH1 0x20 DUP3 DUP5 SUB SLT ISZERO PUSH2 0x53C JUMPI PUSH2 0x53B PUSH2 0x3E3 JUMP JUMPDEST JUMPDEST PUSH0 DUP3 ADD CALLDATALOAD PUSH8 0xFFFFFFFFFFFFFFFF DUP2 GT ISZERO PUSH2 0x559 JUMPI PUSH2 0x558 PUSH2 0x3E7 JUMP JUMPDEST JUMPDEST PUSH2 0x565 DUP5 DUP3 DUP6 ADD PUSH2 0x4FA JUMP JUMPDEST SWAP2 POP POP SWAP3 SWAP2 POP POP JUMP JUMPDEST PUSH0 DUP2 MLOAD SWAP1 POP SWAP2 SWAP1 POP JUMP JUMPDEST PUSH0 DUP3 DUP3 MSTORE PUSH1 0x20 DUP3 ADD SWAP1 POP SWAP3 SWAP2 POP POP JUMP JUMPDEST PUSH0 JUMPDEST DUP4 DUP2 LT ISZERO PUSH2 0x5A5 JUMPI DUP1 DUP3 ADD MLOAD DUP2 DUP5 ADD MSTORE PUSH1 0x20 DUP2 ADD SWAP1 POP PUSH2 0x58A JUMP JUMPDEST PUSH0 DUP5 DUP5 ADD MSTORE POP POP POP POP JUMP JUMPDEST PUSH0 PUSH2 0x5BA DUP3 PUSH2 0x56E JUMP JUMPDEST PUSH2 0x5C4 DUP2 DUP6 PUSH2 0x578 JUMP JUMPDEST SWAP4 POP PUSH2 0x5D4 DUP2 DUP6 PUSH1 0x20 DUP7 ADD PUSH2 0x588 JUMP JUMPDEST PUSH2 0x5DD DUP2 PUSH2 0x3F3 JUMP JUMPDEST DUP5 ADD SWAP2 POP POP SWAP3 SWAP2 POP POP JUMP JUMPDEST PUSH0 PUSH20 0xFFFFFFFFFFFFFFFFFFFFFFFFFFFFFFFFFFFFFFFF DUP3 AND SWAP1 POP SWAP2 SWAP1 POP JUMP JUMPDEST PUSH0 PUSH2 0x611 DUP3 PUSH2 0x5E8 JUMP JUMPDEST SWAP1 POP SWAP2 SWAP1 POP JUMP JUMPDEST PUSH2 0x621 DUP2 PUSH2 0x607 JUMP JUMPDEST DUP3 MSTORE POP POP JUMP JUMPDEST PUSH0 DUP2 SWAP1 POP SWAP2 SWAP1 POP JUMP JUMPDEST PUSH2 0x639 DUP2 PUSH2 0x627 JUMP JUMPDEST DUP3 MSTORE POP POP JUMP JUMPDEST PUSH0 PUSH1 0xA0 DUP3 ADD SWAP1 POP DUP2 DUP2 SUB PUSH0 DUP4 ADD MSTORE PUSH2 0x657 DUP2 DUP9 PUSH2 0x5B0 JUMP JUMPDEST SWAP1 POP DUP2 DUP2 SUB PUSH1 0x20 DUP4 ADD MSTORE PUSH2 0x66B DUP2 DUP8 PUSH2 0x5B0 JUMP JUMPDEST SWAP1 POP DUP2 DUP2 SUB PUSH1 0x40 DUP4 ADD MSTORE PUSH2 0x67F DUP2 DUP7 PUSH2 0x5B0 JUMP JUMPDEST SWAP1 POP PUSH2 0x68E PUSH1 0x60 DUP4 ADD DUP6 PUSH2 0x618 JUMP JUMPDEST PUSH2 0x69B PUSH1 0x80 DUP4 ADD DUP5 PUSH2 0x630 JUMP JUMPDEST SWAP7 SWAP6 POP POP POP POP POP POP JUMP JUMPDEST PUSH0 DUP1 PUSH0 PUSH1 0x60 DUP5 DUP7 SUB SLT ISZERO PUSH2 0x6BC JUMPI PUSH2 0x6BB PUSH2 0x3E3 JUMP JUMPDEST JUMPDEST PUSH0 DUP5 ADD CALLDATALOAD PUSH8 0xFFFFFFFFFFFFFFFF DUP2 GT ISZERO PUSH2 0x6D9 JUMPI PUSH2 0x6D8 PUSH2 0x3E7 JUMP JUMPDEST JUMPDEST PUSH2 0x6E5 DUP7 DUP3 DUP8 ADD PUSH2 0x4FA JUMP JUMPDEST SWAP4 POP POP PUSH1 0x20 DUP5 ADD CALLDATALOAD PUSH8 0xFFFFFFFFFFFFFFFF DUP2 GT ISZERO PUSH2 0x706 JUMPI PUSH2 0x705 PUSH2 0x3E7 JUMP JUMPDEST JUMPDEST PUSH2 0x712 DUP7 DUP3 DUP8 ADD PUSH2 0x4FA JUMP JUMPDEST SWAP3 POP POP PUSH1 0x40 DUP5 ADD CALLDATALOAD PUSH8 0xFFFFFFFFFFFFFFFF DUP2 GT ISZERO PUSH2 0x733 JUMPI PUSH2 0x732 PUSH2 0x3E7 JUMP JUMPDEST JUMPDEST PUSH2 0x73F DUP7 DUP3 DUP8 ADD PUSH2 0x4FA JUMP JUMPDEST SWAP2 POP POP SWAP3 POP SWAP3 POP SWAP3 JUMP JUMPDEST PUSH32 0x4E487B7100000000000000000000000000000000000000000000000000000000 PUSH0 MSTORE PUSH1 0x22 PUSH1 0x4 MSTORE PUSH1 0x24 PUSH0 REVERT JUMPDEST PUSH0 PUSH1 0x2 DUP3 DIV SWAP1 POP PUSH1 0x1 DUP3 AND DUP1 PUSH2 0x78D JUMPI PUSH1 0x7F DUP3 AND SWAP2 POP JUMPDEST PUSH1 0x20 DUP3 LT DUP2 SUB PUSH2 0x7A0 JUMPI PUSH2 0x79F PUSH2 0x749 JUMP JUMPDEST JUMPDEST POP SWAP2 SWAP1 POP JUMP JUMPDEST PUSH0 DUP2 SWAP1 POP SWAP3 SWAP2 POP POP JUMP JUMPDEST PUSH0 PUSH2 0x7BA DUP3 PUSH2 0x56E JUMP JUMPDEST PUSH2 0x7C4 DUP2 DUP6 PUSH2 0x7A6 JUMP JUMPDEST SWAP4 POP PUSH2 0x7D4 DUP2 DUP6 PUSH1 0x20 DUP7 ADD PUSH2 0x588 JUMP JUMPDEST DUP1 DUP5 ADD SWAP2 POP POP SWAP3 SWAP2 POP POP JUMP JUMPDEST PUSH0 PUSH2 0x7EB DUP3 DUP5 PUSH2 0x7B0 JUMP JUMPDEST SWAP2 POP DUP2 SWAP1 POP SWAP3 SWAP2 POP POP JUMP JUMPDEST PUSH0 DUP2 SWAP1 POP DUP2 PUSH0 MSTORE PUSH1 0x20 PUSH0 KECCAK256 SWAP1 POP SWAP2 SWAP1 POP JUMP JUMPDEST PUSH0 PUSH1 0x20 PUSH1 0x1F DUP4 ADD DIV SWAP1 POP SWAP2 SWAP1 POP JUMP JUMPDEST PUSH0 DUP3 DUP3 SHL SWAP1 POP SWAP3 SWAP2 POP POP JUMP JUMPDEST PUSH0 PUSH1 0x8 DUP4 MUL PUSH2 0x852 PUSH32 0xFFFFFFFFFFFFFFFFFFFFFFFFFFFFFFFFFFFFFFFFFFFFFFFFFFFFFFFFFFFFFFFF DUP3 PUSH2 0x817 JUMP JUMPDEST PUSH2 0x85C DUP7 DUP4 PUSH2 0x817 JUMP JUMPDEST SWAP6 POP DUP1 NOT DUP5 AND SWAP4 POP DUP1 DUP7 AND DUP5 OR SWAP3 POP POP POP SWAP4 SWAP3 POP POP POP JUMP JUMPDEST PUSH0 DUP2 SWAP1 POP SWAP2 SWAP1 POP JUMP JUMPDEST PUSH0 PUSH2 0x897 PUSH2 0x892 PUSH2 0x88D DUP5 PUSH2 0x627 JUMP JUMPDEST PUSH2 0x874 JUMP JUMPDEST PUSH2 0x627 JUMP JUMPDEST SWAP1 POP SWAP2 SWAP1 POP JUMP JUMPDEST PUSH0 DUP2 SWAP1 POP SWAP2 SWAP1 POP JUMP JUMPDEST PUSH2 0x8B0 DUP4 PUSH2 0x87D JUMP JUMPDEST PUSH2 0x8C4 PUSH2 0x8BC DUP3 PUSH2 0x89E JUMP JUMPDEST DUP5 DUP5 SLOAD PUSH2 0x823 JUMP JUMPDEST DUP3 SSTORE POP POP POP POP JUMP JUMPDEST PUSH0 SWAP1 JUMP JUMPDEST PUSH2 0x8D8 PUSH2 0x8CC JUMP JUMPDEST PUSH2 0x8E3 DUP2 DUP5 DUP5 PUSH2 0x8A7 JUMP JUMPDEST POP POP POP JUMP JUMPDEST JUMPDEST DUP2 DUP2 LT ISZERO PUSH2 0x906 JUMPI PUSH2 0x8FB PUSH0 DUP3 PUSH2 0x8D0 JUMP JUMPDEST PUSH1 0x1 DUP2 ADD SWAP1 POP PUSH2 0x8E9 JUMP JUMPDEST POP POP JUMP JUMPDEST PUSH1 0x1F DUP3 GT ISZERO PUSH2 0x94B JUMPI PUSH2 0x91C DUP2 PUSH2 0x7F6 JUMP JUMPDEST PUSH2 0x925 DUP5 PUSH2 0x808 JUMP JUMPDEST DUP2 ADD PUSH1 0x20 DUP6 LT ISZERO PUSH2 0x934 JUMPI DUP2 SWAP1 POP JUMPDEST PUSH2 0x948 PUSH2 0x940 DUP6 PUSH2 0x808 JUMP JUMPDEST DUP4 ADD DUP3 PUSH2 0x8E8 JUMP JUMPDEST POP POP JUMPDEST POP POP POP JUMP JUMPDEST PUSH0 DUP3 DUP3 SHR SWAP1 POP SWAP3 SWAP2 POP POP JUMP JUMPDEST PUSH0 PUSH2 0x96B PUSH0 NOT DUP5 PUSH1 0x8 MUL PUSH2 0x950 JUMP JUMPDEST NOT DUP1 DUP4 AND SWAP2 POP POP SWAP3 SWAP2 POP POP JUMP JUMPDEST PUSH0 PUSH2 0x983 DUP4 DUP4 PUSH2 0x95C JUMP JUMPDEST SWAP2 POP DUP3 PUSH1 0x2 MUL DUP3 OR SWAP1 POP SWAP3 SWAP2 POP POP JUMP JUMPDEST PUSH2 0x99C DUP3 PUSH2 0x56E JUMP JUMPDEST PUSH8 0xFFFFFFFFFFFFFFFF DUP2 GT ISZERO PUSH2 0x9B5 JUMPI PUSH2 0x9B4 PUSH2 0x403 JUMP JUMPDEST JUMPDEST PUSH2 0x9BF DUP3 SLOAD PUSH2 0x776 JUMP JUMPDEST PUSH2 0x9CA DUP3 DUP3 DUP6 PUSH2 0x90A JUMP JUMPDEST PUSH0 PUSH1 0x20 SWAP1 POP PUSH1 0x1F DUP4 GT PUSH1 0x1 DUP2 EQ PUSH2 0x9FB JUMPI PUSH0 DUP5 ISZERO PUSH2 0x9E9 JUMPI DUP3 DUP8 ADD MLOAD SWAP1 POP JUMPDEST PUSH2 0x9F3 DUP6 DUP3 PUSH2 0x978 JUMP JUMPDEST DUP7 SSTORE POP PUSH2 0xA5A JUMP JUMPDEST PUSH1 0x1F NOT DUP5 AND PUSH2 0xA09 DUP7 PUSH2 0x7F6 JUMP JUMPDEST PUSH0 JUMPDEST DUP3 DUP2 LT ISZERO PUSH2 0xA30 JUMPI DUP5 DUP10 ADD MLOAD DUP3 SSTORE PUSH1 0x1 DUP3 ADD SWAP2 POP PUSH1 0x20 DUP6 ADD SWAP5 POP PUSH1 0x20 DUP2 ADD SWAP1 POP PUSH2 0xA0B JUMP JUMPDEST DUP7 DUP4 LT ISZERO PUSH2 0xA4D JUMPI DUP5 DUP10 ADD MLOAD PUSH2 0xA49 PUSH1 0x1F DUP10 AND DUP3 PUSH2 0x95C JUMP JUMPDEST DUP4 SSTORE POP JUMPDEST PUSH1 0x1 PUSH1 0x2 DUP9 MUL ADD DUP9 SSTORE POP POP POP JUMPDEST POP POP POP POP POP POP JUMP JUMPDEST PUSH0 PUSH1 0x40 DUP3 ADD SWAP1 POP DUP2 DUP2 SUB PUSH0 DUP4 ADD MSTORE PUSH2 0xA7A DUP2 DUP6 PUSH2 0x5B0 JUMP JUMPDEST SWAP1 POP DUP2 DUP2 SUB PUSH1 0x20 DUP4 ADD MSTORE PUSH2 0xA8E DUP2 DUP5 PUSH2 0x5B0 JUMP JUMPDEST SWAP1 POP SWAP4 SWAP3 POP POP POP JUMP INVALID LOG2 PUSH5 0x6970667358 0x22 SLT KECCAK256 0xD0 0xFC SWAP16 SGT LOG1 0xAA 0x21 0x22 0xDC 0xA7 CALLER SWAP12 0x2B 0xF6 EXP SWAP8 PUSH22 0x23370F97A868D928E6FF1FD8313D8664736F6C634300 ADDMOD XOR STOP CALLER "},"methodIdentifiers":{"logTranscript(string,string,string)":"609411aa","transcripts(string)":"5ae4832d"}}}}}