{"project/contracts/AuditLogger.sol":{"AuditLogger":{"abi":[{"anonymous":false,"inputs":[{"indexed":true,"internalType":"uint256","name":"logId","type":"uint256"},{"indexed":true,"internalType":"address","name":"actor","type":"address"},{"indexed":false,"internalType":"string","name":"action","type":"string"}],"name":"LogCreated","type":"event"},{"inputs":[{"internalType":"string","name":"_action","type":"string"},{"internalType":"string","name":"_targetType","type":"string"},{"internalType":"string","name":"_targetId","type":"string"},{"internalType":"string","name":"_detailsCid","type":"string"}],"name":"createLog","outputs":[],"stateMutability":"nonpayable","type":"function"},{"inputs":[],"name":"getLogsCount","outputs":[{"internalType":"uint256","name":"","type":"uint256"}],"stateMutability":"view","type":"function"},{"inputs":[{"internalType":"uint256","name":"","type":"uint256"}],"name":"logs","outputs":[{"internalType":"address","name":"actor","type":"address"},{"internalType":"string","name":"action","type":"string"},{"internalType":"string","name":"targetType","type":"string"},{"internalType":"string","name":"targetId","type":"string"},{"internalType":"string","name":"detailsCid","type":"string"},{"internalType":"uint256","name":"timestamp","type":"uint256"}],"stateMutability":"view","type":"function"}],"evm":{"bytecode":{"linkReferences":{},"object":"608060405234801561000f575f80fd5b50610c0b8061001d5f395ff3fe608060405234801561000f575f80fd5b506004361061003f575f3560e01c806389f0453514610043578063cc9e300f1461005f578063e79899bd1461007d575b5f80fd5b61005d600480360381019061005891906105fe565b6100b2565b005b610067610229565b60405161007491906106ea565b60405180910390f35b6100976004803603810190610092919061072d565b610234565b6040516100a996959493929190610811565b60405180910390f35b5f6040518060c001604052803373ffffffffffffffffffffffffffffffffffffffff16815260200186815260200185815260200184815260200183815260200142815250908060018154018082558091505060019003905f5260205f2090600602015f909190919091505f820151815f015f6101000a81548173ffffffffffffffffffffffffffffffffffffffff021916908373ffffffffffffffffffffffffffffffffffffffff16021790555060208201518160010190816101759190610a86565b50604082015181600201908161018b9190610a86565b5060608201518160030190816101a19190610a86565b5060808201518160040190816101b79190610a86565b5060a0820151816005015550503373ffffffffffffffffffffffffffffffffffffffff1660015f805490506101ec9190610b82565b7f9de585e7d7012995416923861eb841a14b577f7d6bd5c21fbb9e233ddc41fb048660405161021b9190610bb5565b60405180910390a350505050565b5f8080549050905090565b5f8181548110610242575f80fd5b905f5260205f2090600602015f91509050805f015f9054906101000a900473ffffffffffffffffffffffffffffffffffffffff1690806001018054610286906108b9565b80601f01602080910402602001604051908101604052809291908181526020018280546102b2906108b9565b80156102fd5780601f106102d4576101008083540402835291602001916102fd565b820191905f5260205f20905b8154815290600101906020018083116102e057829003601f168201915b505050505090806002018054610312906108b9565b80601f016020809104026020016040519081016040528092919081815260200182805461033e906108b9565b80156103895780601f1061036057610100808354040283529160200191610389565b820191905f5260205f20905b81548152906001019060200180831161036c57829003601f168201915b50505050509080600301805461039e906108b9565b80601f01602080910402602001604051908101604052809291908181526020018280546103ca906108b9565b80156104155780601f106103ec57610100808354040283529160200191610415565b820191905f5260205f20905b8154815290600101906020018083116103f857829003601f168201915b50505050509080600401805461042a906108b9565b80601f0160208091040260200160405190810160405280929190818152602001828054610456906108b9565b80156104a15780601f10610478576101008083540402835291602001916104a1565b820191905f5260205f20905b81548152906001019060200180831161048457829003601f168201915b5050505050908060050154905086565b5f604051905090565b5f80fd5b5f80fd5b5f80fd5b5f80fd5b5f601f19601f8301169050919050565b7f4e487b71000000000000000000000000000000000000000000000000000000005f52604160045260245ffd5b610510826104ca565b810181811067ffffffffffffffff8211171561052f5761052e6104da565b5b80604052505050565b5f6105416104b1565b905061054d8282610507565b919050565b5f67ffffffffffffffff82111561056c5761056b6104da565b5b610575826104ca565b9050602081019050919050565b828183375f83830152505050565b5f6105a261059d84610552565b610538565b9050828152602081018484840111156105be576105bd6104c6565b5b6105c9848285610582565b509392505050565b5f82601f8301126105e5576105e46104c2565b5b81356105f5848260208601610590565b91505092915050565b5f805f8060808587031215610616576106156104ba565b5b5f85013567ffffffffffffffff811115610633576106326104be565b5b61063f878288016105d1565b945050602085013567ffffffffffffffff8111156106605761065f6104be565b5b61066c878288016105d1565b935050604085013567ffffffffffffffff81111561068d5761068c6104be565b5b610699878288016105d1565b925050606085013567ffffffffffffffff8111156106ba576106b96104be565b5b6106c6878288016105d1565b91505092959194509250565b5f819050919050565b6106e4816106d2565b82525050565b5f6020820190506106fd5f8301846106db565b92915050565b61070c816106d2565b8114610716575f80fd5b50565b5f8135905061072781610703565b92915050565b5f60208284031215610742576107416104ba565b5b5f61074f84828501610719565b91505092915050565b5f73ffffffffffffffffffffffffffffffffffffffff82169050919050565b5f61078182610758565b9050919050565b61079181610777565b82525050565b5f81519050919050565b5f82825260208201905092915050565b5f5b838110156107ce5780820151818401526020810190506107b3565b5f8484015250505050565b5f6107e382610797565b6107ed81856107a1565b93506107fd8185602086016107b1565b610806816104ca565b840191505092915050565b5f60c0820190506108245f830189610788565b818103602083015261083681886107d9565b9050818103604083015261084a81876107d9565b9050818103606083015261085e81866107d9565b9050818103608083015261087281856107d9565b905061088160a08301846106db565b979650505050505050565b7f4e487b71000000000000000000000000000000000000000000000000000000005f52602260045260245ffd5b5f60028204905060018216806108d057607f821691505b6020821081036108e3576108e261088c565b5b50919050565b5f819050815f5260205f209050919050565b5f6020601f8301049050919050565b5f82821b905092915050565b5f600883026109457fffffffffffffffffffffffffffffffffffffffffffffffffffffffffffffffff8261090a565b61094f868361090a565b95508019841693508086168417925050509392505050565b5f819050919050565b5f61098a610985610980846106d2565b610967565b6106d2565b9050919050565b5f819050919050565b6109a383610970565b6109b76109af82610991565b848454610916565b825550505050565b5f90565b6109cb6109bf565b6109d681848461099a565b505050565b5b818110156109f9576109ee5f826109c3565b6001810190506109dc565b5050565b601f821115610a3e57610a0f816108e9565b610a18846108fb565b81016020851015610a27578190505b610a3b610a33856108fb565b8301826109db565b50505b505050565b5f82821c905092915050565b5f610a5e5f1984600802610a43565b1980831691505092915050565b5f610a768383610a4f565b9150826002028217905092915050565b610a8f82610797565b67ffffffffffffffff811115610aa857610aa76104da565b5b610ab282546108b9565b610abd8282856109fd565b5f60209050601f831160018114610aee575f8415610adc578287015190505b610ae68582610a6b565b865550610b4d565b601f198416610afc866108e9565b5f5b82811015610b2357848901518255600182019150602085019450602081019050610afe565b86831015610b405784890151610b3c601f891682610a4f565b8355505b6001600288020188555050505b505050505050565b7f4e487b71000000000000000000000000000000000000000000000000000000005f52601160045260245ffd5b5f610b8c826106d2565b9150610b97836106d2565b9250828203905081811115610baf57610bae610b55565b5b92915050565b5f6020820190508181035f830152610bcd81846107d9565b90509291505056fea264697066735822122020dc5d946212ce5e78e2b4170352ace294ec50f606a6f2632c63b18b737a25c264736f6c63430008180033","opcodes":"PUSH1 0x80 PUSH1 0x40 MSTORE CALLVALUE DUP1 ISZERO PUSH2 0xF JUMPI PUSH0 DUP1 REVERT JUMPDEST POP PUSH2 0xC0B DUP1 PUSH2 0x1D PUSH0 CODECOPY PUSH0 RETURN INVALID PUSH1 0x80 PUSH1 0x40 MSTORE CALLVALUE DUP1 ISZERO PUSH2 0xF JUMPI PUSH0 DUP1 REVERT JUMPDEST POP PUSH1 0x4 CALLDATASIZE LT PUSH2 0x3F JUMPI PUSH0 CALLDATALOAD PUSH1 0xE0 SHR DUP1 PUSH4 0x89F04535 EQ PUSH2 0x43 JUMPI DUP1 PUSH4 0xCC9E300F EQ PUSH2 0x5F JUMPI DUP1 PUSH4 0xE79899BD EQ PUSH2 0x7D JUMPI JUMPDEST PUSH0 DUP1 REVERT JUMPDEST PUSH2 0x5D PUSH1 0x4 DUP1 CALLDATASIZE SUB DUP2 ADD SWAP1 PUSH2 0x58 SWAP2 SWAP1 PUSH2 0x5FE JUMP JUMPDEST PUSH2 0xB2 JUMP JUMPDEST STOP JUMPDEST PUSH2 0x67 PUSH2 0x229 JUMP JUMPDEST PUSH1 0x40 MLOAD PUSH2 0x74 SWAP2 SWAP1 PUSH2 0x6EA JUMP JUMPDEST PUSH1 0x40 MLOAD DUP1 SWAP2 SUB SWAP1 RETURN JUMPDEST PUSH2 0x97 PUSH1 0x4 DUP1 CALLDATASIZE SUB DUP2 ADD SWAP1 PUSH2 0x92 SWAP2 SWAP1 PUSH2 0x72D JUMP JUMPDEST PUSH2 0x234 JUMP JUMPDEST PUSH1 0x40 MLOAD PUSH2 0xA9 SWAP7 SWAP6 SWAP5 SWAP4 SWAP3 SWAP2 SWAP1 PUSH2 0x811 JUMP JUMPDEST PUSH1 0x40 MLOAD DUP1 SWAP2 SUB SWAP1 RETURN JUMPDEST PUSH0 PUSH1 0x40 MLOAD DUP1 PUSH1 0xC0 ADD PUSH1 0x40 MSTORE DUP1 CALLER PUSH20 0xFFFFFFFFFFFFFFFFFFFFFFFFFFFFFFFFFFFFFFFF AND DUP2 MSTORE PUSH1 0x20 ADD DUP7 DUP2 MSTORE PUSH1 0x20 ADD DUP6 DUP2 MSTORE PUSH1 0x20 ADD DUP5 DUP2 MSTORE PUSH1 0x20 ADD DUP4 DUP2 MSTORE PUSH1 0x20 ADD TIMESTAMP DUP2 MSTORE POP SWAP1 DUP1 PUSH1 0x1 DUP2 SLOAD ADD DUP1 DUP3 SSTORE DUP1 SWAP2 POP POP PUSH1 0x1 SWAP1 SUB SWAP1 PUSH0 MSTORE PUSH1 0x20 PUSH0 KECCAK256 SWAP1 PUSH1 0x6 MUL ADD PUSH0 SWAP1 SWAP2 SWAP1 SWAP2 SWAP1 SWAP2 POP PUSH0 DUP3 ADD MLOAD DUP2 PUSH0 ADD PUSH0 PUSH2 0x100 EXP DUP2 SLOAD DUP2 PUSH20 0xFFFFFFFFFFFFFFFFFFFFFFFFFFFFFFFFFFFFFFFF MUL NOT AND SWAP1 DUP4 PUSH20 0xFFFFFFFFFFFFFFFFFFFFFFFFFFFFFFFFFFFFFFFF AND MUL OR SWAP1 SSTORE POP PUSH1 0x20 DUP3 ADD MLOAD DUP2 PUSH1 0x1 ADD SWAP1 DUP2 PUSH2 0x175 SWAP2 SWAP1 PUSH2 0xA86 JUMP JUMPDEST POP PUSH1 0x40 DUP3 ADD MLOAD DUP2 PUSH1 0x2 ADD SWAP1 DUP2 PUSH2 0x18B SWAP2 SWAP1 PUSH2 0xA86 JUMP JUMPDEST POP PUSH1 0x60 DUP3 ADD MLOAD DUP2 PUSH1 0x3 ADD SWAP1 DUP2 PUSH2 0x1A1 SWAP2 SWAP1 PUSH2 0xA86 JUMP JUMPDEST POP PUSH1 0x80 DUP3 ADD MLOAD DUP2 PUSH1 0x4 ADD SWAP1 DUP2 PUSH2 0x1B7 SWAP2 SWAP1 PUSH2 0xA86 JUMP JUMPDEST POP PUSH1 0xA0 DUP3 ADD MLOAD DUP2 PUSH1 0x5 ADD SSTORE POP POP CALLER PUSH20 0xFFFFFFFFFFFFFFFFFFFFFFFFFFFFFFFFFFFFFFFF AND PUSH1 0x1 PUSH0 DUP1 SLOAD SWAP1 POP PUSH2 0x1EC SWAP2 SWAP1 PUSH2 0xB82 JUMP JUMPDEST PUSH32 0x9DE585E7D7012995416923861EB841A14B577F7D6BD5C21FBB9E233DDC41FB04 DUP7 PUSH1 0x40 MLOAD PUSH2 0x21B SWAP2 SWAP1 PUSH2 0xBB5 JUMP JUMPDEST PUSH1 0x40 MLOAD DUP1 SWAP2 SUB SWAP1 LOG3 POP POP POP POP JUMP JUMPDEST PUSH0 DUP1 DUP1 SLOAD SWAP1 POP SWAP1 POP SWAP1 JUMP JUMPDEST PUSH0 DUP2 DUP2 SLOAD DUP2 LT PUSH2 0x242 JUMPI PUSH0 DUP1 REVERT JUMPDEST SWAP1 PUSH0 MSTORE PUSH1 0x20 PUSH0 KECCAK256 SWAP1 PUSH1 0x6 MUL ADD PUSH0 SWAP2 POP SWAP1 POP DUP1 PUSH0 ADD PUSH0 SWAP1 SLOAD SWAP1 PUSH2 0x100 EXP SWAP1 DIV PUSH20 0xFFFFFFFFFFFFFFFFFFFFFFFFFFFFFFFFFFFFFFFF AND SWAP1 DUP1 PUSH1 0x1 ADD DUP1 SLOAD PUSH2 0x286 SWAP1 PUSH2 0x8B9 JUMP JUMPDEST DUP1 PUSH1 0x1F ADD PUSH1 0x20 DUP1 SWAP2 DIV MUL PUSH1 0x20 ADD PUSH1 0x40 MLOAD SWAP1 DUP2 ADD PUSH1 0x40 MSTORE DUP1 SWAP3 SWAP2 SWAP1 DUP2 DUP2 MSTORE PUSH1 0x20 ADD DUP3 DUP1 SLOAD PUSH2 0x2B2 SWAP1 PUSH2 0x8B9 JUMP JUMPDEST DUP1 ISZERO PUSH2 0x2FD JUMPI DUP1 PUSH1 0x1F LT PUSH2 0x2D4 JUMPI PUSH2 0x100 DUP1 DUP4 SLOAD DIV MUL DUP4 MSTORE SWAP2 PUSH1 0x20 ADD SWAP2 PUSH2 0x2FD JUMP JUMPDEST DUP3 ADD SWAP2 SWAP1 PUSH0 MSTORE PUSH1 0x20 PUSH0 KECCAK256 SWAP1 JUMPDEST DUP2 SLOAD DUP2 MSTORE SWAP1 PUSH1 0x1 ADD SWAP1 PUSH1 0x20 ADD DUP1 DUP4 GT PUSH2 0x2E0 JUMPI DUP3 SWAP1 SUB PUSH1 0x1F AND DUP3 ADD SWAP2 JUMPDEST POP POP POP POP POP SWAP1 DUP1 PUSH1 0x2 ADD DUP1 SLOAD PUSH2 0x312 SWAP1 PUSH2 0x8B9 JUMP JUMPDEST DUP1 PUSH1 0x1F ADD PUSH1 0x20 DUP1 SWAP2 DIV MUL PUSH1 0x20 ADD PUSH1 0x40 MLOAD SWAP1 DUP2 ADD PUSH1 0x40 MSTORE DUP1 SWAP3 SWAP2 SWAP1 DUP2 DUP2 MSTORE PUSH1 0x20 ADD DUP3 DUP1 SLOAD PUSH2 0x33E SWAP1 PUSH2 0x8B9 JUMP JUMPDEST DUP1 ISZERO PUSH2 0x389 JUMPI DUP1 PUSH1 0x1F LT PUSH2 0x360 JUMPI PUSH2 0x100 DUP1 DUP4 SLOAD DIV MUL DUP4 MSTORE SWAP2 PUSH1 0x20 ADD SWAP2 PUSH2 0x389 JUMP JUMPDEST DUP3 ADD SWAP2 SWAP1 PUSH0 MSTORE PUSH1 0x20 PUSH0 KECCAK256 SWAP1 JUMPDEST DUP2 SLOAD DUP2 MSTORE SWAP1 PUSH1 0x1 ADD SWAP1 PUSH1 0x20 ADD DUP1 DUP4 GT PUSH2 0x36C JUMPI DUP3 SWAP1 SUB PUSH1 0x1F AND DUP3 ADD SWAP2 JUMPDEST POP POP POP POP POP SWAP1 DUP1 PUSH1 0x3 ADD DUP1 SLOAD PUSH2 0x39E SWAP1 PUSH2 0x8B9 JUMP JUMPDEST DUP1 PUSH1 0x1F ADD PUSH1 0x20 DUP1 SWAP2 DIV MUL PUSH1 0x20 ADD PUSH1 0x40 MLOAD SWAP1 DUP2 ADD PUSH1 0x40 MSTORE DUP1 SWAP3 SWAP2 SWAP1 DUP2 DUP2 MSTORE PUSH1 0x20 ADD DUP3 DUP1 SLOAD PUSH2 0x3CA SWAP1 PUSH2 0x8B9 JUMP JUMPDEST DUP1 ISZERO PUSH2 0x415 JUMPI DUP1 PUSH1 0x1F LT PUSH2 0x3EC JUMPI PUSH2 0x100 DUP1 DUP4 SLOAD DIV MUL DUP4 MSTORE SWAP2 PUSH1 0x20 ADD SWAP2 PUSH2 0x415 JUMP JUMPDEST DUP3 ADD SWAP2 SWAP1 PUSH0 MSTORE PUSH1 0x20 PUSH0 KECCAK256 SWAP1 JUMPDEST DUP2 SLOAD DUP2 MSTORE SWAP1 PUSH1 0x1 ADD SWAP1 PUSH1 0x20 ADD DUP1 DUP4 GT PUSH2 0x3F8 JUMPI DUP3 SWAP1 SUB PUSH1 0x1F AND DUP3 ADD SWAP2 JUMPDEST POP POP POP POP POP SWAP1 DUP1 PUSH1 0x4 ADD DUP1 SLOAD PUSH2 0x42A SWAP1 PUSH2 0x8B9 JUMP JUMPDEST DUP1 PUSH1 0x1F ADD PUSH1 0x20 DUP1 SWAP2 DIV MUL PUSH1 0x20 ADD PUSH1 0x40 MLOAD SWAP1 DUP2 ADD PUSH1 0x40 MSTORE DUP1 SWAP3 SWAP2 SWAP1 DUP2 DUP2 MSTORE PUSH1 0x20 ADD DUP3 DUP1 SLOAD PUSH2 0x456 SWAP1 PUSH2 0x8B9 JUMP JUMPDEST DUP1 ISZERO PUSH2 0x4A1 JUMPI DUP1 PUSH1 0x1F LT PUSH2 0x478 JUMPI PUSH2 0x100 DUP1 DUP4 SLOAD DIV MUL DUP4 MSTORE SWAP2 PUSH1 0x20 ADD SWAP2 PUSH2 0x4A1 JUMP JUMPDEST DUP3 ADD SWAP2 SWAP1 PUSH0 MSTORE PUSH1 0x20 PUSH0 KECCAK256 SWAP1 JUMPDEST DUP2 SLOAD DUP2 MSTORE SWAP1 PUSH1 0x1 ADD SWAP1 PUSH1 0x20 ADD DUP1 DUP4 GT PUSH2 0x484 JUMPI DUP3 SWAP1 SUB PUSH1 0x1F AND DUP3 ADD SWAP2 JUMPDEST POP POP POP POP POP SWAP1 DUP1 PUSH1 0x5 ADD SLOAD SWAP1 POP DUP7 JUMP JUMPDEST PUSH0 PUSH1 0x40 MLOAD SWAP1 POP SWAP1 JUMP JUMPDEST PUSH0 DUP1 REVERT JUMPDEST PUSH0 DUP1 REVERT JUMPDEST PUSH0 DUP1 REVERT JUMPDEST PUSH0 DUP1 REVERT JUMPDEST PUSH0 PUSH1 0x1F NOT PUSH1 0x1F DUP4 ADD AND SWAP1 POP SWAP2 SWAP1 POP JUMP JUMPDEST PUSH32 0x4E487B7100000000000000000000000000000000000000000000000000000000 PUSH0 MSTORE PUSH1 0x41 PUSH1 0x4 MSTORE PUSH1 0x24 PUSH0 REVERT JUMPDEST PUSH2 0x510 DUP3 PUSH2 0x4CA JUMP JUMPDEST DUP2 ADD DUP2 DUP2 LT PUSH8 0xFFFFFFFFFFFFFFFF DUP3 GT OR ISZERO PUSH2 0x52F JUMPI PUSH2 0x52E PUSH2 0x4DA JUMP JUMPDEST JUMPDEST DUP1 PUSH1 0x40 MSTORE POP POP POP JUMP JUMPDEST PUSH0 PUSH2 0x541 PUSH2 0x4B1 JUMP JUMPDEST SWAP1 POP PUSH2 0x54D DUP3 DUP3 PUSH2 0x507 JUMP JUMPDEST SWAP2 SWAP1 POP JUMP JUMPDEST PUSH0 PUSH8 0xFFFFFFFFFFFFFFFF DUP3 GT ISZERO PUSH2 0x56C JUMPI PUSH2 0x56B PUSH2 0x4DA JUMP JUMPDEST JUMPDEST PUSH2 0x575 DUP3 PUSH2 0x4CA JUMP JUMPDEST SWAP1 POP PUSH1 0x20 DUP2 ADD SWAP1 POP SWAP2 SWAP1 POP JUMP JUMPDEST DUP3 DUP2 DUP4 CALLDATACOPY PUSH0 DUP4 DUP4 ADD MSTORE POP POP POP JUMP JUMPDEST PUSH0 PUSH2 0x5A2 PUSH2 0x59D DUP5 PUSH2 0x552 JUMP JUMPDEST PUSH2 0x538 JUMP JUMPDEST SWAP1 POP DUP3 DUP2 MSTORE PUSH1 0x20 DUP2 ADD DUP5 DUP5 DUP5 ADD GT ISZERO PUSH2 0x5BE JUMPI PUSH2 0x5BD PUSH2 0x4C6 JUMP JUMPDEST JUMPDEST PUSH2 0x5C9 DUP5 DUP3 DUP6 PUSH2 0x582 JUMP JUMPDEST POP SWAP4 SWAP3 POP POP POP JUMP JUMPDEST PUSH0 DUP3 PUSH1 0x1F DUP4 ADD SLT PUSH2 0x5E5 JUMPI PUSH2 0x5E4 PUSH2 0x4C2 JUMP JUMPDEST JUMPDEST DUP2 CALLDATALOAD PUSH2 0x5F5 DUP5 DUP3 PUSH1 0x20 DUP7 ADD PUSH2 0x590 JUMP JUMPDEST SWAP2 POP POP SWAP3 SWAP2 POP POP JUMP JUMPDEST PUSH0 DUP1 PUSH0 DUP1 PUSH1 0x80 DUP6 DUP8 SUB SLT ISZERO PUSH2 0x616 JUMPI PUSH2 0x615 PUSH2 0x4BA JUMP JUMPDEST JUMPDEST PUSH0 DUP6 ADD CALLDATALOAD PUSH8 0xFFFFFFFFFFFFFFFF DUP2 GT ISZERO PUSH2 0x633 JUMPI PUSH2 0x632 PUSH2 0x4BE JUMP JUMPDEST JUMPDEST PUSH2 0x63F DUP8 DUP3 DUP9 ADD PUSH2 0x5D1 JUMP JUMPDEST SWAP5 POP POP PUSH1 0x20 DUP6 ADD CALLDATALOAD PUSH8 0xFFFFFFFFFFFFFFFF DUP2 GT ISZERO PUSH2 0x660 JUMPI PUSH2 0x65F PUSH2 0x4BE JUMP JUMPDEST JUMPDEST PUSH2 0x66C DUP8 DUP3 DUP9 ADD PUSH2 0x5D1 JUMP JUMPDEST SWAP4 POP POP PUSH1 0x40 DUP6 ADD CALLDATALOAD PUSH8 0xFFFFFFFFFFFFFFFF DUP2 GT ISZERO PUSH2 0x68D JUMPI PUSH2 0x68C PUSH2 0x4BE JUMP JUMPDEST JUMPDEST PUSH2 0x699 DUP8 DUP3 DUP9 ADD PUSH2 0x5D1 JUMP JUMPDEST SWAP3 POP POP PUSH1 0x60 DUP6 ADD CALLDATALOAD PUSH8 0xFFFFFFFFFFFFFFFF DUP2 GT ISZERO PUSH2 0x6BA JUMPI PUSH2 0x6B9 PUSH2 0x4BE JUMP JUMPDEST JUMPDEST PUSH2 0x6C6 DUP8 DUP3 DUP9 ADD PUSH2 0x5D1 JUMP JUMPDEST SWAP2 POP POP SWAP3 SWAP6 SWAP2 SWAP5 POP SWAP3 POP JUMP JUMPDEST PUSH0 DUP2 SWAP1 POP SWAP2 SWAP1 POP JUMP JUMPDEST PUSH2 0x6E4 DUP2 PUSH2 0x6D2 JUMP JUMPDEST DUP3 MSTORE POP POP JUMP JUMPDEST PUSH0 PUSH1 0x20 DUP3 ADD SWAP1 POP PUSH2 0x6FD PUSH0 DUP4 ADD DUP5 PUSH2 0x6DB JUMP JUMPDEST SWAP3 SWAP2 POP POP JUMP JUMPDEST PUSH2 0x70C DUP2 PUSH2 0x6D2 JUMP JUMPDEST DUP2 EQ PUSH2 0x716 JUMPI PUSH0 DUP1 REVERT JUMPDEST POP JUMP JUMPDEST PUSH0 DUP2 CALLDATALOAD SWAP1 POP PUSH2 0x727 DUP2 PUSH2 0x703 JUMP JUMPDEST SWAP3 SWAP2 POP POP JUMP JUMPDEST PUSH0 PUSH1 0x20 DUP3 DUP5 SUB SLT ISZERO PUSH2 0x742 JUMPI PUSH2 0x741 PUSH2 0x4BA JUMP JUMPDEST JUMPDEST PUSH0 PUSH2 0x74F DUP5 DUP3 DUP6 ADD PUSH2 0x719 JUMP JUMPDEST SWAP2 POP POP SWAP3 SWAP2 POP POP JUMP JUMPDEST PUSH0 PUSH20 0xFFFFFFFFFFFFFFFFFFFFFFFFFFFFFFFFFFFFFFFF DUP3 AND SWAP1 POP SWAP2 SWAP1 POP JUMP JUMPDEST PUSH0 PUSH2 0x781 DUP3 PUSH2 0x758 JUMP JUMPDEST SWAP1 POP SWAP2 SWAP1 POP JUMP JUMPDEST PUSH2 0x791 DUP2 PUSH2 0x777 JUMP JUMPDEST DUP3 MSTORE POP POP JUMP JUMPDEST PUSH0 DUP2 MLOAD SWAP1 POP SWAP2 SWAP1 POP JUMP JUMPDEST PUSH0 DUP3 DUP3 MSTORE PUSH1 0x20 DUP3 ADD SWAP1 POP SWAP3 SWAP2 POP POP JUMP JUMPDEST PUSH0 JUMPDEST DUP4 DUP2 LT ISZERO PUSH2 0x7CE JUMPI DUP1 DUP3 ADD MLOAD DUP2 DUP5 ADD MSTORE PUSH1 0x20 DUP2 ADD SWAP1 POP PUSH2 0x7B3 JUMP JUMPDEST PUSH0 DUP5 DUP5 ADD MSTORE POP POP POP POP JUMP JUMPDEST PUSH0 PUSH2 0x7E3 DUP3 PUSH2 0x797 JUMP JUMPDEST PUSH2 0x7ED DUP2 DUP6 PUSH2 0x7A1 JUMP JUMPDEST SWAP4 POP PUSH2 0x7FD DUP2 DUP6 PUSH1 0x20 DUP7 ADD PUSH2 0x7B1 JUMP JUMPDEST PUSH2 0x806 DUP2 PUSH2 0x4CA JUMP JUMPDEST DUP5 ADD SWAP2 POP POP SWAP3 SWAP2 POP POP JUMP JUMPDEST PUSH0 PUSH1 0xC0 DUP3 ADD SWAP1 POP PUSH2 0x824 PUSH0 DUP4 ADD DUP10 PUSH2 0x788 JUMP JUMPDEST DUP2 DUP2 SUB PUSH1 0x20 DUP4 ADD MSTORE PUSH2 0x836 DUP2 DUP9 PUSH2 0x7D9 JUMP JUMPDEST SWAP1 POP DUP2 DUP2 SUB PUSH1 0x40 DUP4 ADD MSTORE PUSH2 0x84A DUP2 DUP8 PUSH2 0x7D9 JUMP JUMPDEST SWAP1 POP DUP2 DUP2 SUB PUSH1 0x60 DUP4 ADD MSTORE PUSH2 0x85E DUP2 DUP7 PUSH2 0x7D9 JUMP JUMPDEST SWAP1 POP DUP2 DUP2 SUB PUSH1 0x80 DUP4 ADD MSTORE PUSH2 0x872 DUP2 DUP6 PUSH2 0x7D9 JUMP JUMPDEST SWAP1 POP PUSH2 0x881 PUSH1 0xA0 DUP4 ADD DUP5 PUSH2 0x6DB JUMP JUMPDEST SWAP8 SWAP7 POP POP POP POP POP POP POP JUMP JUMPDEST PUSH32 0x4E487B7100000000000000000000000000000000000000000000000000000000 PUSH0 MSTORE PUSH1 0x22 PUSH1 0x4 MSTORE PUSH1 0x24 PUSH0 REVERT JUMPDEST PUSH0 PUSH1 0x2 DUP3 DIV SWAP1 POP PUSH1 0x1 DUP3 AND DUP1 PUSH2 0x8D0 JUMPI PUSH1 0x7F DUP3 AND SWAP2 POP JUMPDEST PUSH1 0x20 DUP3 LT DUP2 SUB PUSH2 0x8E3 JUMPI PUSH2 0x8E2 PUSH2 0x88C JUMP JUMPDEST JUMPDEST POP SWAP2 SWAP1 POP JUMP JUMPDEST PUSH0 DUP2 SWAP1 POP DUP2 PUSH0 MSTORE PUSH1 0x20 PUSH0 KECCAK256 SWAP1 POP SWAP2 SWAP1 POP JUMP JUMPDEST PUSH0 PUSH1 0x20 PUSH1 0x1F DUP4 ADD DIV SWAP1 POP SWAP2 SWAP1 POP JUMP JUMPDEST PUSH0 DUP3 DUP3 SHL SWAP1 POP SWAP3 SWAP2 POP POP JUMP JUMPDEST PUSH0 PUSH1 0x8 DUP4 MUL PUSH2 0x945 PUSH32 0xFFFFFFFFFFFFFFFFFFFFFFFFFFFFFFFFFFFFFFFFFFFFFFFFFFFFFFFFFFFFFFFF DUP3 PUSH2 0x90A JUMP JUMPDEST PUSH2 0x94F DUP7 DUP4 PUSH2 0x90A JUMP JUMPDEST SWAP6 POP DUP1 NOT DUP5 AND SWAP4 POP DUP1 DUP7 AND DUP5 OR SWAP3 POP POP POP SWAP4 SWAP3 POP POP POP JUMP JUMPDEST PUSH0 DUP2 SWAP1 POP SWAP2 SWAP1 POP JUMP JUMPDEST PUSH0 PUSH2 0x98A PUSH2 0x985 PUSH2 0x980 DUP5 PUSH2 0x6D2 JUMP JUMPDEST PUSH2 0x967 JUMP JUMPDEST PUSH2 0x6D2 JUMP JUMPDEST SWAP1 POP SWAP2 SWAP1 POP JUMP JUMPDEST PUSH0 DUP2 SWAP1 POP SWAP2 SWAP1 POP JUMP JUMPDEST PUSH2 0x9A3 DUP4 PUSH2 0x970 JUMP JUMPDEST PUSH2 0x9B7 PUSH2 0x9AF DUP3 PUSH2 0x991 JUMP JUMPDEST DUP5 DUP5 SLOAD PUSH2 0x916 JUMP JUMPDEST DUP3 SSTORE POP POP POP POP JUMP JUMPDEST PUSH0 SWAP1 JUMP JUMPDEST PUSH2 0x9CB PUSH2 0x9BF JUMP JUMPDEST PUSH2 0x9D6 DUP2 DUP5 DUP5 PUSH2 0x99A JUMP JUMPDEST POP POP POP JUMP JUMPDEST JUMPDEST DUP2 DUP2 LT ISZERO PUSH2 0x9F9 JUMPI PUSH2 0x9EE PUSH0 DUP3 PUSH2 0x9C3 JUMP JUMPDEST PUSH1 0x1 DUP2 ADD SWAP1 POP PUSH2 0x9DC JUMP JUMPDEST POP POP JUMP JUMPDEST PUSH1 0x1F DUP3 GT ISZERO PUSH2 0xA3E JUMPI PUSH2 0xA0F DUP2 PUSH2 0x8E9 JUMP JUMPDEST PUSH2 0xA18 DUP5 PUSH2 0x8FB JUMP JUMPDEST DUP2 ADD PUSH1 0x20 DUP6 LT ISZERO PUSH2 0xA27 JUMPI DUP2 SWAP1 POP JUMPDEST PUSH2 0xA3B PUSH2 0xA33 DUP6 PUSH2 0x8FB JUMP JUMPDEST DUP4 ADD DUP3 PUSH2 0x9DB JUMP JUMPDEST POP POP JUMPDEST POP POP POP JUMP JUMPDEST PUSH0 DUP3 DUP3 SHR SWAP1 POP SWAP3 SWAP2 POP POP JUMP JUMPDEST PUSH0 PUSH2 0xA5E PUSH0 NOT DUP5 PUSH1 0x8 MUL PUSH2 0xA43 JUMP JUMPDEST NOT DUP1 DUP4 AND SWAP2 POP POP SWAP3 SWAP2 POP POP JUMP JUMPDEST PUSH0 PUSH2 0xA76 DUP4 DUP4 PUSH2 0xA4F JUMP JUMPDEST SWAP2 POP DUP3 PUSH1 0x2 MUL DUP3 OR SWAP1 POP SWAP3 SWAP2 POP POP JUMP JUMPDEST PUSH2 0xA8F DUP3 PUSH2 0x797 JUMP JUMPDEST PUSH8 0xFFFFFFFFFFFFFFFF DUP2 GT ISZERO PUSH2 0xAA8 JUMPI PUSH2 0xAA7 PUSH2 0x4DA JUMP JUMPDEST JUMPDEST PUSH2 0xAB2 DUP3 SLOAD PUSH2 0x8B9 JUMP JUMPDEST PUSH2 0xABD DUP3 DUP3 DUP6 PUSH2 0x9FD JUMP JUMPDEST PUSH0 PUSH1 0x20 SWAP1 POP PUSH1 0x1F DUP4 GT PUSH1 0x1 DUP2 EQ PUSH2 0xAEE JUMPI PUSH0 DUP5 ISZERO PUSH2 0xADC JUMPI DUP3 DUP8 ADD MLOAD SWAP1 POP JUMPDEST PUSH2 0xAE6 DUP6 DUP3 PUSH2 0xA6B JUMP JUMPDEST DUP7 SSTORE POP PUSH2 0xB4D JUMP JUMPDEST PUSH1 0x1F NOT DUP5 AND PUSH2 0xAFC DUP7 PUSH2 0x8E9 JUMP JUMPDEST PUSH0 JUMPDEST DUP3 DUP2 LT ISZERO PUSH2 0xB23 JUMPI DUP5 DUP10 ADD MLOAD DUP3 SSTORE PUSH1 0x1 DUP3 ADD SWAP2 POP PUSH1 0x20 DUP6 ADD SWAP5 POP PUSH1 0x20 DUP2 ADD SWAP1 POP PUSH2 0xAFE JUMP JUMPDEST DUP7 DUP4 LT ISZERO PUSH2 0xB40 JUMPI DUP5 DUP10 ADD MLOAD PUSH2 0xB3C PUSH1 0x1F DUP10 AND DUP3 PUSH2 0xA4F JUMP JUMPDEST DUP4 SSTORE POP JUMPDEST PUSH1 0x1 PUSH1 0x2 DUP9 MUL ADD DUP9 SSTORE POP POP POP JUMPDEST POP POP POP POP POP POP JUMP JUMPDEST PUSH32 0x4E487B7100000000000000000000000000000000000000000000000000000000 PUSH0 MSTORE PUSH1 0x11 PUSH1 0x4 MSTORE PUSH1 0x24 PUSH0 REVERT JUMPDEST PUSH0 PUSH2 0xB8C DUP3 PUSH2 0x6D2 JUMP JUMPDEST SWAP2 POP PUSH2 0xB97 DUP4 PUSH2 0x6D2 JUMP JUMPDEST SWAP3 POP DUP3 DUP3 SUB SWAP1 POP DUP2 DUP2 GT ISZERO PUSH2 0xBAF JUMPI PUSH2 0xBAE PUSH2 0xB55 JUMP JUMPDEST JUMPDEST SWAP3 SWAP2 POP POP JUMP JUMPDEST PUSH0 PUSH1 0x20 DUP3 ADD SWAP1 POP DUP2 DUP2 SUB PUSH0 DUP4 ADD MSTORE PUSH2 0xBCD DUP2 DUP5 PUSH2 0x7D9 JUMP JUMPDEST SWAP1 POP SWAP3 SWAP2 POP POP JUMP INVALID LOG2 PUSH5 0x6970667358 0x22 SLT KECCAK256 KECCAK256 0xDC TSTORE SWAP5 PUSH3 0x12CE5E PUSH25 0xE2B4170352ACE294EC50F606A6F2632C63B18B737A25C26473 PUSH16 0x6C634300081800330000000000000000 "},"methodIdentifiers":{"createLog(string,string,string,string)":"89f04535","getLogsCount()":"cc9e300f","logs(uint256)":"e79899bd"}}}}}