{
  "_format": "hh3-artifact-1",
  "contractName": "ValidatorRegistry",
  "sourceName": "contracts/ValidatorRegistry.sol",
  "abi": [
    {
      "anonymous": false,
      "inputs": [
        {
          "indexed": true,
          "internalType": "address",
          "name": "wallet",
          "type": "address"
        },
        {
          "indexed": false,
          "internalType": "string",
          "name": "name",
          "type": "string"
        },
        {
          "indexed": false,
          "internalType": "uint256",
          "name": "stake",
          "type": "uint256"
        }
      ],
      "name": "ValidatorAdded",
      "type": "event"
    },
    {
      "inputs": [
        {
          "internalType": "address",
          "name": "_wallet",
          "type": "address"
        },
        {
          "internalType": "string",
          "name": "_name",
          "type": "string"
        },
        {
          "internalType": "uint256",
          "name": "_stake",
          "type": "uint256"
        }
      ],
      "name": "addValidator",
      "outputs": [],
      "stateMutability": "nonpayable",
      "type": "function"
    },
    {
      "inputs": [
        {
          "internalType": "address",
          "name": "",
          "type": "address"
        }
      ],
      "name": "validators",
      "outputs": [
        {
          "internalType": "address",
          "name": "wallet",
          "type": "address"
        },
        {
          "internalType": "string",
          "name": "name",
          "type": "string"
        },
        {
          "internalType": "uint256",
          "name": "stake",
          "type": "uint256"
        },
        {
          "internalType": "bool",
          "name": "isActive",
          "type": "bool"
        }
      ],
      "stateMutability": "view",
      "type": "function"
    }
  ],
  "bytecode": "0x608060405234801561000f575f80fd5b50610a428061001d5f395ff3fe608060405234801561000f575f80fd5b5060043610610034575f3560e01c8063e6e9f50514610038578063fa52c7d814610054575b5f80fd5b610052600480360381019061004d919061051a565b610087565b005b61006e60048036038101906100699190610586565b610264565b60405161007e9493929190610663565b60405180910390f35b5f808473ffffffffffffffffffffffffffffffffffffffff1673ffffffffffffffffffffffffffffffffffffffff1681526020019081526020015f206003015f9054906101000a900460ff1615610113576040517f08c379a000000000000000000000000000000000000000000000000000000000815260040161010a906106f7565b60405180910390fd5b60405180608001604052808473ffffffffffffffffffffffffffffffffffffffff168152602001838152602001828152602001600115158152505f808573ffffffffffffffffffffffffffffffffffffffff1673ffffffffffffffffffffffffffffffffffffffff1681526020019081526020015f205f820151815f015f6101000a81548173ffffffffffffffffffffffffffffffffffffffff021916908373ffffffffffffffffffffffffffffffffffffffff16021790555060208201518160010190816101e2919061090f565b50604082015181600201556060820151816003015f6101000a81548160ff0219169083151502179055509050508273ffffffffffffffffffffffffffffffffffffffff167f35300c28706ba3481d195ff2c3efb96b620acb9130db6377237936ba3cdd85bb83836040516102579291906109de565b60405180910390a2505050565b5f602052805f5260405f205f91509050805f015f9054906101000a900473ffffffffffffffffffffffffffffffffffffffff16908060010180546102a790610742565b80601f01602080910402602001604051908101604052809291908181526020018280546102d390610742565b801561031e5780601f106102f55761010080835404028352916020019161031e565b820191905f5260205f20905b81548152906001019060200180831161030157829003601f168201915b505050505090806002015490806003015f9054906101000a900460ff16905084565b5f604051905090565b5f80fd5b5f80fd5b5f73ffffffffffffffffffffffffffffffffffffffff82169050919050565b5f61037a82610351565b9050919050565b61038a81610370565b8114610394575f80fd5b50565b5f813590506103a581610381565b92915050565b5f80fd5b5f80fd5b5f601f19601f8301169050919050565b7f4e487b71000000000000000000000000000000000000000000000000000000005f52604160045260245ffd5b6103f9826103b3565b810181811067ffffffffffffffff82111715610418576104176103c3565b5b80604052505050565b5f61042a610340565b905061043682826103f0565b919050565b5f67ffffffffffffffff821115610455576104546103c3565b5b61045e826103b3565b9050602081019050919050565b828183375f83830152505050565b5f61048b6104868461043b565b610421565b9050828152602081018484840111156104a7576104a66103af565b5b6104b284828561046b565b509392505050565b5f82601f8301126104ce576104cd6103ab565b5b81356104de848260208601610479565b91505092915050565b5f819050919050565b6104f9816104e7565b8114610503575f80fd5b50565b5f81359050610514816104f0565b92915050565b5f805f6060848603121561053157610530610349565b5b5f61053e86828701610397565b935050602084013567ffffffffffffffff81111561055f5761055e61034d565b5b61056b868287016104ba565b925050604061057c86828701610506565b9150509250925092565b5f6020828403121561059b5761059a610349565b5b5f6105a884828501610397565b91505092915050565b6105ba81610370565b82525050565b5f81519050919050565b5f82825260208201905092915050565b5f5b838110156105f75780820151818401526020810190506105dc565b5f8484015250505050565b5f61060c826105c0565b61061681856105ca565b93506106268185602086016105da565b61062f816103b3565b840191505092915050565b610643816104e7565b82525050565b5f8115159050919050565b61065d81610649565b82525050565b5f6080820190506106765f8301876105b1565b81810360208301526106888186610602565b9050610697604083018561063a565b6106a46060830184610654565b95945050505050565b7f56616c696461746f7220697320616c72656164792061637469766500000000005f82015250565b5f6106e1601b836105ca565b91506106ec826106ad565b602082019050919050565b5f6020820190508181035f83015261070e816106d5565b9050919050565b7f4e487b71000000000000000000000000000000000000000000000000000000005f52602260045260245ffd5b5f600282049050600182168061075957607f821691505b60208210810361076c5761076b610715565b5b50919050565b5f819050815f5260205f209050919050565b5f6020601f8301049050919050565b5f82821b905092915050565b5f600883026107ce7fffffffffffffffffffffffffffffffffffffffffffffffffffffffffffffffff82610793565b6107d88683610793565b95508019841693508086168417925050509392505050565b5f819050919050565b5f61081361080e610809846104e7565b6107f0565b6104e7565b9050919050565b5f819050919050565b61082c836107f9565b6108406108388261081a565b84845461079f565b825550505050565b5f90565b610854610848565b61085f818484610823565b505050565b5b81811015610882576108775f8261084c565b600181019050610865565b5050565b601f8211156108c75761089881610772565b6108a184610784565b810160208510156108b0578190505b6108c46108bc85610784565b830182610864565b50505b505050565b5f82821c905092915050565b5f6108e75f19846008026108cc565b1980831691505092915050565b5f6108ff83836108d8565b9150826002028217905092915050565b610918826105c0565b67ffffffffffffffff811115610931576109306103c3565b5b61093b8254610742565b610946828285610886565b5f60209050601f831160018114610977575f8415610965578287015190505b61096f85826108f4565b8655506109d6565b601f19841661098586610772565b5f5b828110156109ac57848901518255600182019150602085019450602081019050610987565b868310156109c957848901516109c5601f8916826108d8565b8355505b6001600288020188555050505b505050505050565b5f6040820190508181035f8301526109f68185610602565b9050610a05602083018461063a565b939250505056fea2646970667358221220092bbffacda2f15606813e198c680b83d6af4b580fab87baf0f851a871ea696664736f6c63430008180033",
  "linkReferences": {},
  "deployedLinkReferences": {},
  "immutableReferences": {},
  "inputSourceName": "project/contracts/ValidatorRegistry.sol",
  "buildInfoId": "solc-0_8_24-b2ed4355f6cc93b6e12407c89e0d1e668cf8e551"
}